:020000020000FC
:1000000008ED0CBF00E007BF08ED0CBF00E006BF25
:100010000FEF09BF01E001B900E002B919D035D0F6
:100020006F936FEF2ED068EC2CD06F9145D06F930B
:100030006FEF27D06F91F3CF18E0109A000037FDD3
:1000400006D0330F109803D01A95B9F70895089584
:1000500010980FEF0A95F1F708950F930AEF04D067
:100060000A95F1F70F9108954F934AEF4A95F1F7EA
:100070004F9108950F930AE0F0DF0A95E9F70F9189
:100080000895F8DF6A95E9F7089548E151E068E1DD
:10009000593189F0583121F015D06A956517C1F7AB
:1000A00018D06A95E9F7D4DF6F9364E1EADF6F91C6
:1000B000539568E1EDCF089548E104D04A95E9F7FA
:1000C000C7DF089530E0B8DF30E0B6DF30E0B4DFFE
:1000D000089532E3B1DF3FEFAFDF30E0ADDF0895E9
:00000001FF
